{"contracts/GetterSetter.sol":{"GetterSetter":{"abi":[{"anonymous":false,"inputs":[{"indexed":false,"internalType":"bytes32","name":"b32","type":"bytes32"},{"indexed":false,"internalType":"uint256","name":"u256","type":"uint256"},{"indexed":false,"internalType":"bytes32","name":"b322","type":"bytes32"}],"name":"Output","type":"event"},{"anonymous":false,"inputs":[{"indexed":true,"internalType":"address","name":"from","type":"address"},{"indexed":false,"internalType":"bytes","name":"value","type":"bytes"}],"name":"SetBytes","type":"event"},{"anonymous":false,"inputs":[{"indexed":true,"internalType":"address","name":"from","type":"address"},{"indexed":true,"internalType":"bytes32","name":"value","type":"bytes32"}],"name":"SetBytes32","type":"event"},{"anonymous":false,"inputs":[{"indexed":true,"internalType":"address","name":"from","type":"address"},{"indexed":true,"internalType":"uint256","name":"value","type":"uint256"}],"name":"SetUint256","type":"event"},{"inputs":[],"name":"getBytes","outputs":[{"internalType":"bytes","name":"","type":"bytes"}],"stateMutability":"view","type":"function"},{"inputs":[],"name":"getBytes32","outputs":[{"internalType":"bytes32","name":"","type":"bytes32"}],"stateMutability":"view","type":"function"},{"inputs":[],"name":"getUint256","outputs":[{"internalType":"uint256","name":"","type":"uint256"}],"stateMutability":"view","type":"function"},{"inputs":[],"name":"requestId","outputs":[{"internalType":"bytes32","name":"","type":"bytes32"}],"stateMutability":"view","type":"function"},{"inputs":[{"internalType":"bytes32","name":"_requestId","type":"bytes32"},{"internalType":"bytes","name":"_value","type":"bytes"}],"name":"requestedBytes","outputs":[],"stateMutability":"nonpayable","type":"function"},{"inputs":[{"internalType":"bytes32","name":"_requestId","type":"bytes32"},{"internalType":"bytes32","name":"_value","type":"bytes32"}],"name":"requestedBytes32","outputs":[],"stateMutability":"nonpayable","type":"function"},{"inputs":[{"internalType":"bytes32","name":"_requestId","type":"bytes32"},{"internalType":"uint256","name":"_value","type":"uint256"}],"name":"requestedUint256","outputs":[],"stateMutability":"nonpayable","type":"function"},{"inputs":[{"internalType":"bytes","name":"_value","type":"bytes"}],"name":"setBytes","outputs":[],"stateMutability":"nonpayable","type":"function"},{"inputs":[{"internalType":"bytes32","name":"_value","type":"bytes32"}],"name":"setBytes32","outputs":[],"stateMutability":"nonpayable","type":"function"},{"inputs":[{"internalType":"uint256","name":"_value","type":"uint256"}],"name":"setUint256","outputs":[],"stateMutability":"nonpayable","type":"function"}],"evm":{"bytecode":{"linkReferences":{},"object":"608060405234801561001057600080fd5b50610ae9806100206000396000f3fe608060405234801561001057600080fd5b506004361061009d5760003560e01c806368895979116100665780636889597914610134578063c2b12a7314610152578063d2282dc51461016e578063da359dc81461018a578063ed53e511146101a65761009d565b80626d6cae146100a25780630bcd3b33146100c05780631f903037146100de5780633345b4d0146100fc57806346ddd1ff14610118575b600080fd5b6100aa6101c2565b6040516100b791906103b4565b60405180910390f35b6100c86101c8565b6040516100d5919061045f565b60405180910390f35b6100e6610256565b6040516100f391906103b4565b60405180910390f35b610116600480360381019061011191906104f7565b61025c565b005b610132600480360381019061012d919061066c565b610270565b005b61013c610284565b60405161014991906106d7565b60405180910390f35b61016c600480360381019061016791906106f2565b61028a565b005b6101886004803603810190610183919061071f565b6102d8565b005b6101a4600480360381019061019f919061074c565b610326565b005b6101c060048036038101906101bb9190610795565b610387565b005b60025481565b600380546101d590610804565b80601f016020809104026020016040519081016040528092919081815260200182805461020190610804565b801561024e5780601f106102235761010080835404028352916020019161024e565b820191906000526020600020905b81548152906001019060200180831161023157829003601f168201915b505050505081565b60005481565b8160028190555061026c816102d8565b5050565b8160028190555061028081610326565b5050565b60015481565b80600081905550803373ffffffffffffffffffffffffffffffffffffffff167fdc73ee99832252105ed74a404690c2f10ad1b294cbbeb0ff5cded48ef2aa437d60405160405180910390a350565b80600181905550803373ffffffffffffffffffffffffffffffffffffffff167fd943f063acdb1c6f206cf6a3f6d1ba39687bcc07feb7f44019bdbd4773c9c28d60405160405180910390a350565b806003908161033591906109e1565b503373ffffffffffffffffffffffffffffffffffffffff167ff22a519d38e59bc517532f666f8da532fdd5356e68d617191e82a8fdcc8abdcf8260405161037c919061045f565b60405180910390a250565b816002819055506103978161028a565b5050565b6000819050919050565b6103ae8161039b565b82525050565b60006020820190506103c960008301846103a5565b92915050565b600081519050919050565b600082825260208201905092915050565b60005b838110156104095780820151818401526020810190506103ee565b60008484015250505050565b6000601f19601f8301169050919050565b6000610431826103cf565b61043b81856103da565b935061044b8185602086016103eb565b61045481610415565b840191505092915050565b600060208201905081810360008301526104798184610426565b905092915050565b6000604051905090565b600080fd5b600080fd5b61049e8161039b565b81146104a957600080fd5b50565b6000813590506104bb81610495565b92915050565b6000819050919050565b6104d4816104c1565b81146104df57600080fd5b50565b6000813590506104f1816104cb565b92915050565b6000806040838503121561050e5761050d61048b565b5b600061051c858286016104ac565b925050602061052d858286016104e2565b9150509250929050565b600080fd5b600080fd5b7f4e487b7100000000000000000000000000000000000000000000000000000000600052604160045260246000fd5b61057982610415565b810181811067ffffffffffffffff8211171561059857610597610541565b5b80604052505050565b60006105ab610481565b90506105b78282610570565b919050565b600067ffffffffffffffff8211156105d7576105d6610541565b5b6105e082610415565b9050602081019050919050565b82818337600083830152505050565b600061060f61060a846105bc565b6105a1565b90508281526020810184848401111561062b5761062a61053c565b5b6106368482856105ed565b509392505050565b600082601f83011261065357610652610537565b5b81356106638482602086016105fc565b91505092915050565b600080604083850312156106835761068261048b565b5b6000610691858286016104ac565b925050602083013567ffffffffffffffff8111156106b2576106b1610490565b5b6106be8582860161063e565b9150509250929050565b6106d1816104c1565b82525050565b60006020820190506106ec60008301846106c8565b92915050565b6000602082840312156107085761070761048b565b5b6000610716848285016104ac565b91505092915050565b6000602082840312156107355761073461048b565b5b6000610743848285016104e2565b91505092915050565b6000602082840312156107625761076161048b565b5b600082013567ffffffffffffffff8111156107805761077f610490565b5b61078c8482850161063e565b91505092915050565b600080604083850312156107ac576107ab61048b565b5b60006107ba858286016104ac565b92505060206107cb858286016104ac565b9150509250929050565b7f4e487b7100000000000000000000000000000000000000000000000000000000600052602260045260246000fd5b6000600282049050600182168061081c57607f821691505b60208210810361082f5761082e6107d5565b5b50919050565b60008190508160005260206000209050919050565b60006020601f8301049050919050565b600082821b905092915050565b6000600883026108977fffffffffffffffffffffffffffffffffffffffffffffffffffffffffffffffff8261085a565b6108a1868361085a565b95508019841693508086168417925050509392505050565b6000819050919050565b60006108de6108d96108d4846104c1565b6108b9565b6104c1565b9050919050565b6000819050919050565b6108f8836108c3565b61090c610904826108e5565b848454610867565b825550505050565b600090565b610921610914565b61092c8184846108ef565b505050565b5b8181101561095057610945600082610919565b600181019050610932565b5050565b601f8211156109955761096681610835565b61096f8461084a565b8101602085101561097e578190505b61099261098a8561084a565b830182610931565b50505b505050565b600082821c905092915050565b60006109b86000198460080261099a565b1980831691505092915050565b60006109d183836109a7565b9150826002028217905092915050565b6109ea826103cf565b67ffffffffffffffff811115610a0357610a02610541565b5b610a0d8254610804565b610a18828285610954565b600060209050601f831160018114610a4b5760008415610a39578287015190505b610a4385826109c5565b865550610aab565b601f198416610a5986610835565b60005b82811015610a8157848901518255600182019150602085019450602081019050610a5c565b86831015610a9e5784890151610a9a601f8916826109a7565b8355505b6001600288020188555050505b50505050505056fea26469706673582212208b5ff847571290f4c2cc7a07179ca1955d587ba4f541fd51bad0570a59672a6664736f6c63430008180033","opcodes":"PUSH1 0x80 PUSH1 0x40 MSTORE CALLVALUE DUP1 ISZERO PUSH2 0x10 JUMPI PUSH1 0x0 DUP1 REVERT JUMPDEST POP PUSH2 0xAE9 DUP1 PUSH2 0x20 PUSH1 0x0 CODECOPY PUSH1 0x0 RETURN INVALID PUSH1 0x80 PUSH1 0x40 MSTORE CALLVALUE DUP1 ISZERO PUSH2 0x10 JUMPI PUSH1 0x0 DUP1 REVERT JUMPDEST POP PUSH1 0x4 CALLDATASIZE LT PUSH2 0x9D JUMPI PUSH1 0x0 CALLDATALOAD PUSH1 0xE0 SHR DUP1 PUSH4 0x68895979 GT PUSH2 0x66 JUMPI DUP1 PUSH4 0x68895979 EQ PUSH2 0x134 JUMPI DUP1 PUSH4 0xC2B12A73 EQ PUSH2 0x152 JUMPI DUP1 PUSH4 0xD2282DC5 EQ PUSH2 0x16E JUMPI DUP1 PUSH4 0xDA359DC8 EQ PUSH2 0x18A JUMPI DUP1 PUSH4 0xED53E511 EQ PUSH2 0x1A6 JUMPI PUSH2 0x9D JUMP JUMPDEST DUP1 PUSH3 0x6D6CAE EQ PUSH2 0xA2 JUMPI DUP1 PUSH4 0xBCD3B33 EQ PUSH2 0xC0 JUMPI DUP1 PUSH4 0x1F903037 EQ PUSH2 0xDE JUMPI DUP1 PUSH4 0x3345B4D0 EQ PUSH2 0xFC JUMPI DUP1 PUSH4 0x46DDD1FF EQ PUSH2 0x118 JUMPI JUMPDEST PUSH1 0x0 DUP1 REVERT JUMPDEST PUSH2 0xAA PUSH2 0x1C2 JUMP JUMPDEST PUSH1 0x40 MLOAD PUSH2 0xB7 SWAP2 SWAP1 PUSH2 0x3B4 JUMP JUMPDEST PUSH1 0x40 MLOAD DUP1 SWAP2 SUB SWAP1 RETURN JUMPDEST PUSH2 0xC8 PUSH2 0x1C8 JUMP JUMPDEST PUSH1 0x40 MLOAD PUSH2 0xD5 SWAP2 SWAP1 PUSH2 0x45F JUMP JUMPDEST PUSH1 0x40 MLOAD DUP1 SWAP2 SUB SWAP1 RETURN JUMPDEST PUSH2 0xE6 PUSH2 0x256 JUMP JUMPDEST PUSH1 0x40 MLOAD PUSH2 0xF3 SWAP2 SWAP1 PUSH2 0x3B4 JUMP JUMPDEST PUSH1 0x40 MLOAD DUP1 SWAP2 SUB SWAP1 RETURN JUMPDEST PUSH2 0x116 PUSH1 0x4 DUP1 CALLDATASIZE SUB DUP2 ADD SWAP1 PUSH2 0x111 SWAP2 SWAP1 PUSH2 0x4F7 JUMP JUMPDEST PUSH2 0x25C JUMP JUMPDEST STOP JUMPDEST PUSH2 0x132 PUSH1 0x4 DUP1 CALLDATASIZE SUB DUP2 ADD SWAP1 PUSH2 0x12D SWAP2 SWAP1 PUSH2 0x66C JUMP JUMPDEST PUSH2 0x270 JUMP JUMPDEST STOP JUMPDEST PUSH2 0x13C PUSH2 0x284 JUMP JUMPDEST PUSH1 0x40 MLOAD PUSH2 0x149 SWAP2 SWAP1 PUSH2 0x6D7 JUMP JUMPDEST PUSH1 0x40 MLOAD DUP1 SWAP2 SUB SWAP1 RETURN JUMPDEST PUSH2 0x16C PUSH1 0x4 DUP1 CALLDATASIZE SUB DUP2 ADD SWAP1 PUSH2 0x167 SWAP2 SWAP1 PUSH2 0x6F2 JUMP JUMPDEST PUSH2 0x28A JUMP JUMPDEST STOP JUMPDEST PUSH2 0x188 PUSH1 0x4 DUP1 CALLDATASIZE SUB DUP2 ADD SWAP1 PUSH2 0x183 SWAP2 SWAP1 PUSH2 0x71F JUMP JUMPDEST PUSH2 0x2D8 JUMP JUMPDEST STOP JUMPDEST PUSH2 0x1A4 PUSH1 0x4 DUP1 CALLDATASIZE SUB DUP2 ADD SWAP1 PUSH2 0x19F SWAP2 SWAP1 PUSH2 0x74C JUMP JUMPDEST PUSH2 0x326 JUMP JUMPDEST STOP JUMPDEST PUSH2 0x1C0 PUSH1 0x4 DUP1 CALLDATASIZE SUB DUP2 ADD SWAP1 PUSH2 0x1BB SWAP2 SWAP1 PUSH2 0x795 JUMP JUMPDEST PUSH2 0x387 JUMP JUMPDEST STOP JUMPDEST PUSH1 0x2 SLOAD DUP2 JUMP JUMPDEST PUSH1 0x3 DUP1 SLOAD PUSH2 0x1D5 SWAP1 PUSH2 0x804 JUMP JUMPDEST DUP1 PUSH1 0x1F ADD PUSH1 0x20 DUP1 SWAP2 DIV MUL PUSH1 0x20 ADD PUSH1 0x40 MLOAD SWAP1 DUP2 ADD PUSH1 0x40 MSTORE DUP1 SWAP3 SWAP2 SWAP1 DUP2 DUP2 MSTORE PUSH1 0x20 ADD DUP3 DUP1 SLOAD PUSH2 0x201 SWAP1 PUSH2 0x804 JUMP JUMPDEST DUP1 ISZERO PUSH2 0x24E JUMPI DUP1 PUSH1 0x1F LT PUSH2 0x223 JUMPI PUSH2 0x100 DUP1 DUP4 SLOAD DIV MUL DUP4 MSTORE SWAP2 PUSH1 0x20 ADD SWAP2 PUSH2 0x24E JUMP JUMPDEST DUP3 ADD SWAP2 SWAP1 PUSH1 0x0 MSTORE PUSH1 0x20 PUSH1 0x0 KECCAK256 SWAP1 JUMPDEST DUP2 SLOAD DUP2 MSTORE SWAP1 PUSH1 0x1 ADD SWAP1 PUSH1 0x20 ADD DUP1 DUP4 GT PUSH2 0x231 JUMPI DUP3 SWAP1 SUB PUSH1 0x1F AND DUP3 ADD SWAP2 JUMPDEST POP POP POP POP POP DUP2 JUMP JUMPDEST PUSH1 0x0 SLOAD DUP2 JUMP JUMPDEST DUP2 PUSH1 0x2 DUP2 SWAP1 SSTORE POP PUSH2 0x26C DUP2 PUSH2 0x2D8 JUMP JUMPDEST POP POP JUMP JUMPDEST DUP2 PUSH1 0x2 DUP2 SWAP1 SSTORE POP PUSH2 0x280 DUP2 PUSH2 0x326 JUMP JUMPDEST POP POP JUMP JUMPDEST PUSH1 0x1 SLOAD DUP2 JUMP JUMPDEST DUP1 PUSH1 0x0 DUP2 SWAP1 SSTORE POP DUP1 CALLER PUSH20 0xFFFFFFFFFFFFFFFFFFFFFFFFFFFFFFFFFFFFFFFF AND PUSH32 0xDC73EE99832252105ED74A404690C2F10AD1B294CBBEB0FF5CDED48EF2AA437D PUSH1 0x40 MLOAD PUSH1 0x40 MLOAD DUP1 SWAP2 SUB SWAP1 LOG3 POP JUMP JUMPDEST DUP1 PUSH1 0x1 DUP2 SWAP1 SSTORE POP DUP1 CALLER PUSH20 0xFFFFFFFFFFFFFFFFFFFFFFFFFFFFFFFFFFFFFFFF AND PUSH32 0xD943F063ACDB1C6F206CF6A3F6D1BA39687BCC07FEB7F44019BDBD4773C9C28D PUSH1 0x40 MLOAD PUSH1 0x40 MLOAD DUP1 SWAP2 SUB SWAP1 LOG3 POP JUMP JUMPDEST DUP1 PUSH1 0x3 SWAP1 DUP2 PUSH2 0x335 SWAP2 SWAP1 PUSH2 0x9E1 JUMP JUMPDEST POP CALLER PUSH20 0xFFFFFFFFFFFFFFFFFFFFFFFFFFFFFFFFFFFFFFFF AND PUSH32 0xF22A519D38E59BC517532F666F8DA532FDD5356E68D617191E82A8FDCC8ABDCF DUP3 PUSH1 0x40 MLOAD PUSH2 0x37C SWAP2 SWAP1 PUSH2 0x45F JUMP JUMPDEST PUSH1 0x40 MLOAD DUP1 SWAP2 SUB SWAP1 LOG2 POP JUMP JUMPDEST DUP2 PUSH1 0x2 DUP2 SWAP1 SSTORE POP PUSH2 0x397 DUP2 PUSH2 0x28A JUMP JUMPDEST POP POP JUMP JUMPDEST PUSH1 0x0 DUP2 SWAP1 POP SWAP2 SWAP1 POP JUMP JUMPDEST PUSH2 0x3AE DUP2 PUSH2 0x39B JUMP JUMPDEST DUP3 MSTORE POP POP JUMP JUMPDEST PUSH1 0x0 PUSH1 0x20 DUP3 ADD SWAP1 POP PUSH2 0x3C9 PUSH1 0x0 DUP4 ADD DUP5 PUSH2 0x3A5 JUMP JUMPDEST SWAP3 SWAP2 POP POP JUMP JUMPDEST PUSH1 0x0 DUP2 MLOAD SWAP1 POP SWAP2 SWAP1 POP JUMP JUMPDEST PUSH1 0x0 DUP3 DUP3 MSTORE PUSH1 0x20 DUP3 ADD SWAP1 POP SWAP3 SWAP2 POP POP JUMP JUMPDEST PUSH1 0x0 JUMPDEST DUP4 DUP2 LT ISZERO PUSH2 0x409 JUMPI DUP1 DUP3 ADD MLOAD DUP2 DUP5 ADD MSTORE PUSH1 0x20 DUP2 ADD SWAP1 POP PUSH2 0x3EE JUMP JUMPDEST PUSH1 0x0 DUP5 DUP5 ADD MSTORE POP POP POP POP JUMP JUMPDEST PUSH1 0x0 PUSH1 0x1F NOT PUSH1 0x1F DUP4 ADD AND SWAP1 POP SWAP2 SWAP1 POP JUMP JUMPDEST PUSH1 0x0 PUSH2 0x431 DUP3 PUSH2 0x3CF JUMP JUMPDEST PUSH2 0x43B DUP2 DUP6 PUSH2 0x3DA JUMP JUMPDEST SWAP4 POP PUSH2 0x44B DUP2 DUP6 PUSH1 0x20 DUP7 ADD PUSH2 0x3EB JUMP JUMPDEST PUSH2 0x454 DUP2 PUSH2 0x415 JUMP JUMPDEST DUP5 ADD SWAP2 POP POP SWAP3 SWAP2 POP POP JUMP JUMPDEST PUSH1 0x0 PUSH1 0x20 DUP3 ADD SWAP1 POP DUP2 DUP2 SUB PUSH1 0x0 DUP4 ADD MSTORE PUSH2 0x479 DUP2 DUP5 PUSH2 0x426 JUMP JUMPDEST SWAP1 POP SWAP3 SWAP2 POP POP JUMP JUMPDEST PUSH1 0x0 PUSH1 0x40 MLOAD SWAP1 POP SWAP1 JUMP JUMPDEST PUSH1 0x0 DUP1 REVERT JUMPDEST PUSH1 0x0 DUP1 REVERT JUMPDEST PUSH2 0x49E DUP2 PUSH2 0x39B JUMP JUMPDEST DUP2 EQ PUSH2 0x4A9 JUMPI PUSH1 0x0 DUP1 REVERT JUMPDEST POP JUMP JUMPDEST PUSH1 0x0 DUP2 CALLDATALOAD SWAP1 POP PUSH2 0x4BB DUP2 PUSH2 0x495 JUMP JUMPDEST SWAP3 SWAP2 POP POP JUMP JUMPDEST PUSH1 0x0 DUP2 SWAP1 POP SWAP2 SWAP1 POP JUMP JUMPDEST PUSH2 0x4D4 DUP2 PUSH2 0x4C1 JUMP JUMPDEST DUP2 EQ PUSH2 0x4DF JUMPI PUSH1 0x0 DUP1 REVERT JUMPDEST POP JUMP JUMPDEST PUSH1 0x0 DUP2 CALLDATALOAD SWAP1 POP PUSH2 0x4F1 DUP2 PUSH2 0x4CB JUMP JUMPDEST SWAP3 SWAP2 POP POP JUMP JUMPDEST PUSH1 0x0 DUP1 PUSH1 0x40 DUP4 DUP6 SUB SLT ISZERO PUSH2 0x50E JUMPI PUSH2 0x50D PUSH2 0x48B JUMP JUMPDEST JUMPDEST PUSH1 0x0 PUSH2 0x51C DUP6 DUP3 DUP7 ADD PUSH2 0x4AC JUMP JUMPDEST SWAP3 POP POP PUSH1 0x20 PUSH2 0x52D DUP6 DUP3 DUP7 ADD PUSH2 0x4E2 JUMP JUMPDEST SWAP2 POP POP SWAP3 POP SWAP3 SWAP1 POP JUMP JUMPDEST PUSH1 0x0 DUP1 REVERT JUMPDEST PUSH1 0x0 DUP1 REVERT JUMPDEST PUSH32 0x4E487B7100000000000000000000000000000000000000000000000000000000 PUSH1 0x0 MSTORE PUSH1 0x41 PUSH1 0x4 MSTORE PUSH1 0x24 PUSH1 0x0 REVERT JUMPDEST PUSH2 0x579 DUP3 PUSH2 0x415 JUMP JUMPDEST DUP2 ADD DUP2 DUP2 LT PUSH8 0xFFFFFFFFFFFFFFFF DUP3 GT OR ISZERO PUSH2 0x598 JUMPI PUSH2 0x597 PUSH2 0x541 JUMP JUMPDEST JUMPDEST DUP1 PUSH1 0x40 MSTORE POP POP POP JUMP JUMPDEST PUSH1 0x0 PUSH2 0x5AB PUSH2 0x481 JUMP JUMPDEST SWAP1 POP PUSH2 0x5B7 DUP3 DUP3 PUSH2 0x570 JUMP JUMPDEST SWAP2 SWAP1 POP JUMP JUMPDEST PUSH1 0x0 PUSH8 0xFFFFFFFFFFFFFFFF DUP3 GT ISZERO PUSH2 0x5D7 JUMPI PUSH2 0x5D6 PUSH2 0x541 JUMP JUMPDEST JUMPDEST PUSH2 0x5E0 DUP3 PUSH2 0x415 JUMP JUMPDEST SWAP1 POP PUSH1 0x20 DUP2 ADD SWAP1 POP SWAP2 SWAP1 POP JUMP JUMPDEST DUP3 DUP2 DUP4 CALLDATACOPY PUSH1 0x0 DUP4 DUP4 ADD MSTORE POP POP POP JUMP JUMPDEST PUSH1 0x0 PUSH2 0x60F PUSH2 0x60A DUP5 PUSH2 0x5BC JUMP JUMPDEST PUSH2 0x5A1 JUMP JUMPDEST SWAP1 POP DUP3 DUP2 MSTORE PUSH1 0x20 DUP2 ADD DUP5 DUP5 DUP5 ADD GT ISZERO PUSH2 0x62B JUMPI PUSH2 0x62A PUSH2 0x53C JUMP JUMPDEST JUMPDEST PUSH2 0x636 DUP5 DUP3 DUP6 PUSH2 0x5ED JUMP JUMPDEST POP SWAP4 SWAP3 POP POP POP JUMP JUMPDEST PUSH1 0x0 DUP3 PUSH1 0x1F DUP4 ADD SLT PUSH2 0x653 JUMPI PUSH2 0x652 PUSH2 0x537 JUMP JUMPDEST JUMPDEST DUP2 CALLDATALOAD PUSH2 0x663 DUP5 DUP3 PUSH1 0x20 DUP7 ADD PUSH2 0x5FC JUMP JUMPDEST SWAP2 POP POP SWAP3 SWAP2 POP POP JUMP JUMPDEST PUSH1 0x0 DUP1 PUSH1 0x40 DUP4 DUP6 SUB SLT ISZERO PUSH2 0x683 JUMPI PUSH2 0x682 PUSH2 0x48B JUMP JUMPDEST JUMPDEST PUSH1 0x0 PUSH2 0x691 DUP6 DUP3 DUP7 ADD PUSH2 0x4AC JUMP JUMPDEST SWAP3 POP POP PUSH1 0x20 DUP4 ADD CALLDATALOAD PUSH8 0xFFFFFFFFFFFFFFFF DUP2 GT ISZERO PUSH2 0x6B2 JUMPI PUSH2 0x6B1 PUSH2 0x490 JUMP JUMPDEST JUMPDEST PUSH2 0x6BE DUP6 DUP3 DUP7 ADD PUSH2 0x63E JUMP JUMPDEST SWAP2 POP POP SWAP3 POP SWAP3 SWAP1 POP JUMP JUMPDEST PUSH2 0x6D1 DUP2 PUSH2 0x4C1 JUMP JUMPDEST DUP3 MSTORE POP POP JUMP JUMPDEST PUSH1 0x0 PUSH1 0x20 DUP3 ADD SWAP1 POP PUSH2 0x6EC PUSH1 0x0 DUP4 ADD DUP5 PUSH2 0x6C8 JUMP JUMPDEST SWAP3 SWAP2 POP POP JUMP JUMPDEST PUSH1 0x0 PUSH1 0x20 DUP3 DUP5 SUB SLT ISZERO PUSH2 0x708 JUMPI PUSH2 0x707 PUSH2 0x48B JUMP JUMPDEST JUMPDEST PUSH1 0x0 PUSH2 0x716 DUP5 DUP3 DUP6 ADD PUSH2 0x4AC JUMP JUMPDEST SWAP2 POP POP SWAP3 SWAP2 POP POP JUMP JUMPDEST PUSH1 0x0 PUSH1 0x20 DUP3 DUP5 SUB SLT ISZERO PUSH2 0x735 JUMPI PUSH2 0x734 PUSH2 0x48B JUMP JUMPDEST JUMPDEST PUSH1 0x0 PUSH2 0x743 DUP5 DUP3 DUP6 ADD PUSH2 0x4E2 JUMP JUMPDEST SWAP2 POP POP SWAP3 SWAP2 POP POP JUMP JUMPDEST PUSH1 0x0 PUSH1 0x20 DUP3 DUP5 SUB SLT ISZERO PUSH2 0x762 JUMPI PUSH2 0x761 PUSH2 0x48B JUMP JUMPDEST JUMPDEST PUSH1 0x0 DUP3 ADD CALLDATALOAD PUSH8 0xFFFFFFFFFFFFFFFF DUP2 GT ISZERO PUSH2 0x780 JUMPI PUSH2 0x77F PUSH2 0x490 JUMP JUMPDEST JUMPDEST PUSH2 0x78C DUP5 DUP3 DUP6 ADD PUSH2 0x63E JUMP JUMPDEST SWAP2 POP POP SWAP3 SWAP2 POP POP JUMP JUMPDEST PUSH1 0x0 DUP1 PUSH1 0x40 DUP4 DUP6 SUB SLT ISZERO PUSH2 0x7AC JUMPI PUSH2 0x7AB PUSH2 0x48B JUMP JUMPDEST JUMPDEST PUSH1 0x0 PUSH2 0x7BA DUP6 DUP3 DUP7 ADD PUSH2 0x4AC JUMP JUMPDEST SWAP3 POP POP PUSH1 0x20 PUSH2 0x7CB DUP6 DUP3 DUP7 ADD PUSH2 0x4AC JUMP JUMPDEST SWAP2 POP POP SWAP3 POP SWAP3 SWAP1 POP JUMP JUMPDEST PUSH32 0x4E487B7100000000000000000000000000000000000000000000000000000000 PUSH1 0x0 MSTORE PUSH1 0x22 PUSH1 0x4 MSTORE PUSH1 0x24 PUSH1 0x0 REVERT JUMPDEST PUSH1 0x0 PUSH1 0x2 DUP3 DIV SWAP1 POP PUSH1 0x1 DUP3 AND DUP1 PUSH2 0x81C JUMPI PUSH1 0x7F DUP3 AND SWAP2 POP JUMPDEST PUSH1 0x20 DUP3 LT DUP2 SUB PUSH2 0x82F JUMPI PUSH2 0x82E PUSH2 0x7D5 JUMP JUMPDEST JUMPDEST POP SWAP2 SWAP1 POP JUMP JUMPDEST PUSH1 0x0 DUP2 SWAP1 POP DUP2 PUSH1 0x0 MSTORE PUSH1 0x20 PUSH1 0x0 KECCAK256 SWAP1 POP SWAP2 SWAP1 POP JUMP JUMPDEST PUSH1 0x0 PUSH1 0x20 PUSH1 0x1F DUP4 ADD DIV SWAP1 POP SWAP2 SWAP1 POP JUMP JUMPDEST PUSH1 0x0 DUP3 DUP3 SHL SWAP1 POP SWAP3 SWAP2 POP POP JUMP JUMPDEST PUSH1 0x0 PUSH1 0x8 DUP4 MUL PUSH2 0x897 PUSH32 0xFFFFFFFFFFFFFFFFFFFFFFFFFFFFFFFFFFFFFFFFFFFFFFFFFFFFFFFFFFFFFFFF DUP3 PUSH2 0x85A JUMP JUMPDEST PUSH2 0x8A1 DUP7 DUP4 PUSH2 0x85A JUMP JUMPDEST SWAP6 POP DUP1 NOT DUP5 AND SWAP4 POP DUP1 DUP7 AND DUP5 OR SWAP3 POP POP POP SWAP4 SWAP3 POP POP POP JUMP JUMPDEST PUSH1 0x0 DUP2 SWAP1 POP SWAP2 SWAP1 POP JUMP JUMPDEST PUSH1 0x0 PUSH2 0x8DE PUSH2 0x8D9 PUSH2 0x8D4 DUP5 PUSH2 0x4C1 JUMP JUMPDEST PUSH2 0x8B9 JUMP JUMPDEST PUSH2 0x4C1 JUMP JUMPDEST SWAP1 POP SWAP2 SWAP1 POP JUMP JUMPDEST PUSH1 0x0 DUP2 SWAP1 POP SWAP2 SWAP1 POP JUMP JUMPDEST PUSH2 0x8F8 DUP4 PUSH2 0x8C3 JUMP JUMPDEST PUSH2 0x90C PUSH2 0x904 DUP3 PUSH2 0x8E5 JUMP JUMPDEST DUP5 DUP5 SLOAD PUSH2 0x867 JUMP JUMPDEST DUP3 SSTORE POP POP POP POP JUMP JUMPDEST PUSH1 0x0 SWAP1 JUMP JUMPDEST PUSH2 0x921 PUSH2 0x914 JUMP JUMPDEST PUSH2 0x92C DUP2 DUP5 DUP5 PUSH2 0x8EF JUMP JUMPDEST POP POP POP JUMP JUMPDEST JUMPDEST DUP2 DUP2 LT ISZERO PUSH2 0x950 JUMPI PUSH2 0x945 PUSH1 0x0 DUP3 PUSH2 0x919 JUMP JUMPDEST PUSH1 0x1 DUP2 ADD SWAP1 POP PUSH2 0x932 JUMP JUMPDEST POP POP JUMP JUMPDEST PUSH1 0x1F DUP3 GT ISZERO PUSH2 0x995 JUMPI PUSH2 0x966 DUP2 PUSH2 0x835 JUMP JUMPDEST PUSH2 0x96F DUP5 PUSH2 0x84A JUMP JUMPDEST DUP2 ADD PUSH1 0x20 DUP6 LT ISZERO PUSH2 0x97E JUMPI DUP2 SWAP1 POP JUMPDEST PUSH2 0x992 PUSH2 0x98A DUP6 PUSH2 0x84A JUMP JUMPDEST DUP4 ADD DUP3 PUSH2 0x931 JUMP JUMPDEST POP POP JUMPDEST POP POP POP JUMP JUMPDEST PUSH1 0x0 DUP3 DUP3 SHR SWAP1 POP SWAP3 SWAP2 POP POP JUMP JUMPDEST PUSH1 0x0 PUSH2 0x9B8 PUSH1 0x0 NOT DUP5 PUSH1 0x8 MUL PUSH2 0x99A JUMP JUMPDEST NOT DUP1 DUP4 AND SWAP2 POP POP SWAP3 SWAP2 POP POP JUMP JUMPDEST PUSH1 0x0 PUSH2 0x9D1 DUP4 DUP4 PUSH2 0x9A7 JUMP JUMPDEST SWAP2 POP DUP3 PUSH1 0x2 MUL DUP3 OR SWAP1 POP SWAP3 SWAP2 POP POP JUMP JUMPDEST PUSH2 0x9EA DUP3 PUSH2 0x3CF JUMP JUMPDEST PUSH8 0xFFFFFFFFFFFFFFFF DUP2 GT ISZERO PUSH2 0xA03 JUMPI PUSH2 0xA02 PUSH2 0x541 JUMP JUMPDEST JUMPDEST PUSH2 0xA0D DUP3 SLOAD PUSH2 0x804 JUMP JUMPDEST PUSH2 0xA18 DUP3 DUP3 DUP6 PUSH2 0x954 JUMP JUMPDEST PUSH1 0x0 PUSH1 0x20 SWAP1 POP PUSH1 0x1F DUP4 GT PUSH1 0x1 DUP2 EQ PUSH2 0xA4B JUMPI PUSH1 0x0 DUP5 ISZERO PUSH2 0xA39 JUMPI DUP3 DUP8 ADD MLOAD SWAP1 POP JUMPDEST PUSH2 0xA43 DUP6 DUP3 PUSH2 0x9C5 JUMP JUMPDEST DUP7 SSTORE POP PUSH2 0xAAB JUMP JUMPDEST PUSH1 0x1F NOT DUP5 AND PUSH2 0xA59 DUP7 PUSH2 0x835 JUMP JUMPDEST PUSH1 0x0 JUMPDEST DUP3 DUP2 LT ISZERO PUSH2 0xA81 JUMPI DUP5 DUP10 ADD MLOAD DUP3 SSTORE PUSH1 0x1 DUP3 ADD SWAP2 POP PUSH1 0x20 DUP6 ADD SWAP5 POP PUSH1 0x20 DUP2 ADD SWAP1 POP PUSH2 0xA5C JUMP JUMPDEST DUP7 DUP4 LT ISZERO PUSH2 0xA9E JUMPI DUP5 DUP10 ADD MLOAD PUSH2 0xA9A PUSH1 0x1F DUP10 AND DUP3 PUSH2 0x9A7 JUMP JUMPDEST DUP4 SSTORE POP JUMPDEST PUSH1 0x1 PUSH1 0x2 DUP9 MUL ADD DUP9 SSTORE POP POP POP JUMPDEST POP POP POP POP POP POP JUMP INVALID LOG2 PUSH5 0x6970667358 0x22 SLT KECCAK256 DUP12 PUSH0 0xF8 SELFBALANCE JUMPI SLT SWAP1 DELEGATECALL 0xC2 0xCC PUSH27 0x7179CA1955D587BA4F541FD51BAD0570A59672A6664736F6C6343 STOP ADDMOD XOR STOP CALLER "},"methodIdentifiers":{"getBytes()":"0bcd3b33","getBytes32()":"1f903037","getUint256()":"68895979","requestId()":"006d6cae","requestedBytes(bytes32,bytes)":"46ddd1ff","requestedBytes32(bytes32,bytes32)":"ed53e511","requestedUint256(bytes32,uint256)":"3345b4d0","setBytes(bytes)":"da359dc8","setBytes32(bytes32)":"c2b12a73","setUint256(uint256)":"d2282dc5"}}}}}