{
  "_format": "hh-sol-artifact-1",
  "contractName": "AddFiveStorage",
  "sourceName": "contracts/AddFiveStorage.sol",
  "abi": [
    {
      "inputs": [
        {
          "internalType": "string",
          "name": "_name",
          "type": "string"
        },
        {
          "internalType": "uint256",
          "name": "_favoriteNumber",
          "type": "uint256"
        }
      ],
      "name": "addPerson",
      "outputs": [],
      "stateMutability": "nonpayable",
      "type": "function"
    },
    {
      "inputs": [
        {
          "internalType": "uint256",
          "name": "",
          "type": "uint256"
        }
      ],
      "name": "listOfPeople",
      "outputs": [
        {
          "internalType": "uint256",
          "name": "favoriteNumber",
          "type": "uint256"
        },
        {
          "internalType": "string",
          "name": "name",
          "type": "string"
        }
      ],
      "stateMutability": "view",
      "type": "function"
    },
    {
      "inputs": [
        {
          "internalType": "string",
          "name": "",
          "type": "string"
        }
      ],
      "name": "nameToFavoriteNumber",
      "outputs": [
        {
          "internalType": "uint256",
          "name": "",
          "type": "uint256"
        }
      ],
      "stateMutability": "view",
      "type": "function"
    },
    {
      "inputs": [],
      "name": "retrieve",
      "outputs": [
        {
          "internalType": "uint256",
          "name": "",
          "type": "uint256"
        }
      ],
      "stateMutability": "view",
      "type": "function"
    },
    {
      "inputs": [],
      "name": "saHello",
      "outputs": [
        {
          "internalType": "string",
          "name": "",
          "type": "string"
        }
      ],
      "stateMutability": "pure",
      "type": "function"
    },
    {
      "inputs": [
        {
          "internalType": "uint256",
          "name": "_newNumber",
          "type": "uint256"
        }
      ],
      "name": "store",
      "outputs": [],
      "stateMutability": "nonpayable",
      "type": "function"
    }
  ],
  "bytecode": "0x608060405234801561001057600080fd5b50610a32806100206000396000f3fe608060405234801561001057600080fd5b50600436106100625760003560e01c806308a7b65a146100675780632e64cec1146100855780632ebce631146100a35780636057361d146100d45780636f760f41146100f05780638bab8dd51461010c575b600080fd5b61006f61013c565b60405161007c919061039b565b60405180910390f35b61008d610179565b60405161009a91906103d6565b60405180910390f35b6100bd60048036038101906100b89190610431565b610182565b6040516100cb92919061045e565b60405180910390f35b6100ee60048036038101906100e99190610431565b61023e565b005b61010a600480360381019061010591906105c3565b610254565b005b6101266004803603810190610121919061061f565b6102dd565b60405161013391906103d6565b60405180910390f35b60606040518060400160405280600581526020017f68656c6c6f000000000000000000000000000000000000000000000000000000815250905090565b60008054905090565b6001818154811061019257600080fd5b90600052602060002090600202016000915090508060000154908060010180546101bb90610697565b80601f01602080910402602001604051908101604052809291908181526020018280546101e790610697565b80156102345780601f1061020957610100808354040283529160200191610234565b820191906000526020600020905b81548152906001019060200180831161021757829003601f168201915b5050505050905082565b60058161024b91906106f7565b60008190555050565b600160405180604001604052808381526020018481525090806001815401808255809150506001900390600052602060002090600202016000909190919091506000820151816000015560208201518160010190816102b391906108d7565b505050806002836040516102c791906109e5565b9081526020016040518091039020819055505050565b6002818051602081018201805184825260208301602085012081835280955050505050506000915090505481565b600081519050919050565b600082825260208201905092915050565b60005b8381101561034557808201518184015260208101905061032a565b60008484015250505050565b6000601f19601f8301169050919050565b600061036d8261030b565b6103778185610316565b9350610387818560208601610327565b61039081610351565b840191505092915050565b600060208201905081810360008301526103b58184610362565b905092915050565b6000819050919050565b6103d0816103bd565b82525050565b60006020820190506103eb60008301846103c7565b92915050565b6000604051905090565b600080fd5b600080fd5b61040e816103bd565b811461041957600080fd5b50565b60008135905061042b81610405565b92915050565b600060208284031215610447576104466103fb565b5b60006104558482850161041c565b91505092915050565b600060408201905061047360008301856103c7565b81810360208301526104858184610362565b90509392505050565b600080fd5b600080fd5b7f4e487b7100000000000000000000000000000000000000000000000000000000600052604160045260246000fd5b6104d082610351565b810181811067ffffffffffffffff821117156104ef576104ee610498565b5b80604052505050565b60006105026103f1565b905061050e82826104c7565b919050565b600067ffffffffffffffff82111561052e5761052d610498565b5b61053782610351565b9050602081019050919050565b82818337600083830152505050565b600061056661056184610513565b6104f8565b90508281526020810184848401111561058257610581610493565b5b61058d848285610544565b509392505050565b600082601f8301126105aa576105a961048e565b5b81356105ba848260208601610553565b91505092915050565b600080604083850312156105da576105d96103fb565b5b600083013567ffffffffffffffff8111156105f8576105f7610400565b5b61060485828601610595565b92505060206106158582860161041c565b9150509250929050565b600060208284031215610635576106346103fb565b5b600082013567ffffffffffffffff81111561065357610652610400565b5b61065f84828501610595565b91505092915050565b7f4e487b7100000000000000000000000000000000000000000000000000000000600052602260045260246000fd5b600060028204905060018216806106af57607f821691505b6020821081036106c2576106c1610668565b5b50919050565b7f4e487b7100000000000000000000000000000000000000000000000000000000600052601160045260246000fd5b6000610702826103bd565b915061070d836103bd565b9250828201905080821115610725576107246106c8565b5b92915050565b60008190508160005260206000209050919050565b60006020601f8301049050919050565b600082821b905092915050565b60006008830261078d7fffffffffffffffffffffffffffffffffffffffffffffffffffffffffffffffff82610750565b6107978683610750565b95508019841693508086168417925050509392505050565b6000819050919050565b60006107d46107cf6107ca846103bd565b6107af565b6103bd565b9050919050565b6000819050919050565b6107ee836107b9565b6108026107fa826107db565b84845461075d565b825550505050565b600090565b61081761080a565b6108228184846107e5565b505050565b5b818110156108465761083b60008261080f565b600181019050610828565b5050565b601f82111561088b5761085c8161072b565b61086584610740565b81016020851015610874578190505b61088861088085610740565b830182610827565b50505b505050565b600082821c905092915050565b60006108ae60001984600802610890565b1980831691505092915050565b60006108c7838361089d565b9150826002028217905092915050565b6108e08261030b565b67ffffffffffffffff8111156108f9576108f8610498565b5b6109038254610697565b61090e82828561084a565b600060209050601f831160018114610941576000841561092f578287015190505b61093985826108bb565b8655506109a1565b601f19841661094f8661072b565b60005b8281101561097757848901518255600182019150602085019450602081019050610952565b868310156109945784890151610990601f89168261089d565b8355505b6001600288020188555050505b505050505050565b600081905092915050565b60006109bf8261030b565b6109c981856109a9565b93506109d9818560208601610327565b80840191505092915050565b60006109f182846109b4565b91508190509291505056fea2646970667358221220b8a19d63e9ec85dbd58827c043196b8f319266f7e011e17a0217cc01ea32c8e864736f6c63430008180033",
  "linkReferences": {},
  "deployedLinkReferences": {}
}